:060000000A128A11E82F2C
:10000A00730803190D28720871047004031D20284F
:10001A000030F0000030F1000030F200080001303A
:10002A00F5007508F30701300310F20CF10CF00C1F
:10003A00FF3E031D1928FE30720503193B281428B8
:10004A000130F5007508F3070130F0070030031896
:10005A000130F107003003180130F20701300310B4
:10006A00F20CF10CF00CFF3E031D3428FF30720530
:10007A0003194A2825280130F30201300310F00D34
:10008A00F10DF20DFF3E031D4328F11B50280230EB
:10009A0073020318402873185828FF30F0057F3080
:1000AA00F105FF30F2050310F30C7308F500F601B1
:1000BA00F70110300310F50DF60DF70DFF3E031D85
:1000CA005F287508F0047608F1047708F2047408CA
:1000DA0003190800F2170800831203132A08AE0056
:1000EA002B08AF002C08B00003102F0D300DB10003
:1000FA003108B7003708031D8B280030AD000030E7
:10010A00AC000030AB000030AA0008002A08AE009C
:10011A002B08AF002C08B00017300310B00CAF0C3E
:10012A00AE0CFF3E031D92282E08B1003108B20022
:10013A00AB17FF30AA05FF30AB050030AC052A0823
:10014A00B3002B08B4002C08B500B6018E30B702F4
:10015A00B71FCD283708803A8F3E0318BD280030D4
:10016A00AD000030AC000030AB000030AA0008003F
:10017A0001300310B60CB50CB40CB30CFF3E031DD2
:10018A00BE280130AE002E08B7070319E828BD289B
:10019A0018303702031CE5280030AD000030AC00EF
:1001AA000030AB000030AA0008000130AE00031096
:1001BA00B30DB40DB50DB60DAE0BDC280130B70288
:1001CA003708031DDA2832080319F628B309B409D7
:1001DA00B509B609B30A0319B40A0319B50A03190A
:1001EA00B60A3608AD003508AC003408AB0033084F
:1001FA00AA000800831203131E08E0006008EB003F
:10020A00831603131E0883120313E0006008EA0032
:10021A006B080739E0006008E9006908E00001306E
:10022A000310E00DFF3E031D15290310600DE100C8
:10023A006108E9006B08E00003300310E00CFF3EA0
:10024A00031D22296008E1006108EB006B08803871
:10025A00E0006008EB006A08E00006300310E00CDA
:10026A00FF3E031D33296008E1006108EA006A08BD
:10027A006904E0006008EA006A0899006B089900BE
:10028A006B081F39E0006008EB006A08E000E10132
:10029A006B08E200E3010530FF000310E20DE30DF5
:1002AA00FF0B522960086204E70061086304E80052
:1002BA00C030AA007F30AB004430AC006808F100BF
:1002CA006708F0000530F2000030F3000A128A15C0
:1002DA0024250A128A117108F9007008F8000A1216
:1002EA008A15DB240A128A11780883120313AD00D7
:1002FA007908AE007A08AF000A128A1198210A1208
:10030A008A11831203132A08E4002B08E5002C083B
:10031A00E6006408D3006508D4006608D5000A120E
:10032A008A11DB230800831203132D08B0002E085C
:10033A00B1002F08B2000310310D320DB30033089B
:10034A00B8003808031DB0290030AA000030AB00FD
:10035A000030AC0008002A08B0002B08B1002C08B5
:10036A00B2000310310D320DB3003308B900390859
:10037A00031DC6290030AA000030AB000030AC00D3
:10038A0008000030B5000030B6000030B7008930F0
:10039A003907B0003008B8022D08B0002E08B100A5
:1003AA002F08B20010300310B20CB10CB00CFF3E93
:1003BA00031DD8293008B3003308B9002A08B00051
:1003CA002B08B1002C08B20010300310B20CB10C8B
:1003DA00B00CFF3E031DEA293008B3003308B90602
:1003EA008030B0003008B905AE17FF30AD05FF30D8
:1003FA00AE050030AF05AB17FF30AA05FF30AB05DD
:10040A000030AC051830B0003008B40001300310D9
:10041A00B50DB60DB70DFF3E031D0C2A2C082F0291
:10042A00031D1D2A2B082E02031D1D2A2A082D0230
:10043A00031C2A2A2A08AD022B08031C2B0FAE0222
:10044A002C08031C2C0AAF02351401300310AD0D21
:10045A00AE0DAF0DFF3E031D2B2A0130B402031D62
:10046A000B2A3508F0003608F1003708F200380880
:10047A00B0003008F3003908B1003108F4000A125C
:10048A008A110520700883120313AA007108AB00B1
:10049A007208AC000800B43083120313C90049087B
:1004AA00D2004408F0004508F1004608F200003086
:1004BA00F3000030F4000030F5000A128A15D9263C
:1004CA000A128A110318892A2D3083120313C900CC
:1004DA00520884004908831380000130C900490882
:1004EA00D2074408F0004508F1004608F2000A1253
:1004FA008A1579240A128A11700883120313C40018
:10050A007108C5007208C600831203134408AA00C2
:10051A004508AB004608AC000A128A1171200A127B
:10052A008A11831203132D08D1002C08D0002B083E
:10053A00CF002A08CE005108FB005008FA004F08E5
:10054A00F9004E08F8000A128A1569250A128A115A
:10055A00780883120313A7007908A8007A08A9006B
:10056A004408AA004508AB004608AC000A128A15DE
:10057A0003250A128A11831203132708C4002808C4
:10058A00C5002908C6004408FB004508FC004608C7
:10059A00FD002430F8007430F9004930FA000A12DC
:1005AA008A110A230A128A11780883120313AA00ED
:1005BA007908AB007A08AC000A128A1171200A1273
:1005CA008A11831203132D08CD002C08CC002B08A6
:1005DA00CB002A08CA002930C9004908AA005108D4
:1005EA00AE005008AD004F08AC004E08AB004D08F5
:1005FA00B2004C08B1004B08B0004A08AF005208DC
:10060A000A128A11B425B430080078088312031339
:10061A00A0007908A1007A08A2000310210D220D7A
:10062A00A3002308A4002408031D222B0030F8008D
:10063A000030F9000030FA0008007B08A0007C08AE
:10064A00A1007D08A2000310210D220DA30023089A
:10065A00A9002908031D382B0030F8000030F900E2
:10066A000030FA00080029087B3EA0002008A407F1
:10067A007808A0007908A1007A08A20010300310B7
:10068A00A20CA10CA00CFF3E031D442B2008A300C2
:10069A002308A9007B08A0007C08A1007D08A2000D
:1006AA0010300310A20CA10CA00CFF3E031D562B08
:1006BA002008A3002308A9068030A0002008A90565
:1006CA00F917FC17FF30FB05FF30FC050030FD056C
:1006DA000030A5000030A6000030A7000730A000B7
:1006EA002008A800781C872B7B08A5077C08031123
:1006FA0003187C0A031DA6077D08031103187D0A47
:10070A00031DA70701300310FA0CF90CF80CFF3E81
:10071A00031D882B01300310FB0DFC0DFD0DFF3E60
:10072A00031D902B0130A802031D772B0930A0006E
:10073A002008A800781CAF2B7B08A5077C080311AA
:10074A0003187C0A031DA6077D08031103187D0AF6
:10075A00031DA70701300310FA0CF90CF80CFF3E31
:10076A00031DB02B01300310A70CA60CA50CFF3EED
:10077A00031DB82B0130A802031D9F2B2508F0008A
:10078A002608F1002708F2002408A0002008F30038
:10079A002908A1002108F4000A128A11052070080C
:1007AA00F8007108F9007208FA0008000030831294
:1007BA000313AA00A030AB004030AC000030F800B0
:1007CA004830F9004230FA005308FB005408FC0094
:1007DA005508FD000A128A110A230A128A1178089A
:1007EA0083120313AD007908AE007A08AF000A122B
:1007FA008A1198210A128A11831203132A08D9002E
:10080A002B08DA002C08DB005908C4005A08C50076
:10081A005B08C6005E08C7005F08C8000A128A1192
:10082A0050220A128A1183120313D6005608DD00D9
:10083A00C530F0000030F1000A128A15FE250A12AE
:10084A008A11831203135908F0005A08F1005B0851
:10085A00F2000030F3002030F4004130F5000A12B3
:10086A008A15D9260A128A110318442C3030F0004E
:10087A000030F1000A128A1543260A128A118312DD
:10088A000313DE01DF015E085D07D6005608840007
:10089A002E308313000603196D2C5E085D07D600FF
:1008AA005608840083130008D700D8015708F000BF
:1008BA005808F1000A128A1543260A128A110130D1
:1008CA0083120313DE070318DF0A0030DF07482C00
:1008DA005E08D6005608DC005E08033ED6005F08B4
:1008EA000318013E003ED7005708803A803C031D9A
:1008FA00802C56085C0203189D2C831203135C0893
:10090A005D07D6005608840083130008D700D80173
:10091A005708F0005808F1000A128A1543260A12ED
:10092A008A11013083120313D6005608DC07712C92
:10093A000030F000F1000A128A1543260A128A11C1
:10094A004330F0000030F1000A128A1543260800ED
:10095A00780883120313A0007908A1007A08A2007C
:10096A000310210D220DA3002308A6007B08A00076
:10097A007C08A1007D08A2000310210D220DA3000E
:10098A002308A50026080319D62C250826020318D1
:10099A00DD2C2603FF3A2507A00019302002031C8C
:1009AA00DD2C7B08F8007C08F9007D08FA000800B5
:1009BA00250803190800260825020318EC2C25032C
:1009CA00FF3A2607A0001930200203180800063053
:1009DA00A0002008A400FA1BA417FD1B2417F9176E
:1009EA00FF30F805FF30F9050030FA05FC17FF3033
:1009FA00FB05FF30FC050030FD052508260203181B
:100A0A002C2D01300310FB0DFC0DFD0DFF3E031DC7
:100A1A00072D0130A502250826060319272D0130C6
:100A2A00A402240807390319272D062D01300310C3
:100A3A00FA0CF90CF80CFF3E031D1C2D0130A00026
:100A4A002008A607260825060319552D1B2D26085A
:100A5A0025020318552D01300310F80DF90DFA0D72
:100A6A00FF3E031D312D0130A60225082606031973
:100A7A00512D0130A402240807390319512D302DB4
:100A8A0001300310FD0CFC0CFB0CFF3E031D462D30
:100A9A000130A0002008A50726082506031D452DBC
:100AAA00A41F672DFF30F806FF30F906FF30FA065B
:100ABA000130F807003003180130F9070030031835
:100ACA000130FA07241F792DFF30FB06FF30FC06A0
:100ADA00FF30FD060130FB07003003180130FC0728
:100AEA00003003180130FD07A4017808FB077908D4
:100AFA0003110318790A031DFC077A080311031866
:100B0A007A0A031DFD07FD1F9C2DFF30FB06FF30EF
:100B1A00FC06FF30FD060130FB07003003180130E8
:100B2A00FC07003003180130FD07A401A40A7B0862
:100B3A00F0007C08F1007D08F2002608A0002008D9
:100B4A00F3002408A1002108F4000A128A110520E2
:100B5A007008F8007108F9007208FA000800831298
:100B6A000313BE002B30B3003308B9000130AA07C3
:100B7A00FF302A0784000A128A1500200A128A11F5
:100B8A00B3003308C30043080319E32F2530430693
:100B9A000319DB2D4308B3003E088400330883138E
:100BAA0080000130B3003308BE07BB2DBF01C0016E
:100BBA00B8012A0884000A128A1500200A128A112A
:100BCA000A128A15A8240A128A11031C2A2E8312D1
:100BDA000313BF01C0010A30F0000030F100831294
:100BEA0003134008F3003F08F2000A128A1524256D
:100BFA000A128A11710883120313C0007008BF0019
:100C0A002A0884000A128A1500200A128A11D03E84
:100C1A00B300FF3003180030B4003308BF070318CD
:100C2A00C00A3408C0070130B3003308AA072A08EB
:100C3A0084000A128A1500200A128A110A128A15D9
:100C4A00A8240A128A110318F02D831203132A0802
:100C5A0084000A128A1500200A128A112E3A031DEC
:100C6A00762E0130B3003308AA07C101C2012A084F
:100C7A0084000A128A1500200A128A110A128A1599
:100C8A00A8240A128A11031C822E83120313420813
:100C9A00F1004108F0000A30F2000030F3000A12B5
:100CAA008A1524250A128A11831203132A0884003A
:100CBA000A128A1500200A128A117007B30000303E
:100CCA00031801307107B4003308D03EC10034085C
:100CDA000318013EFF3EC2000130B3003308AA07E1
:100CEA003C2E83120313C101C201822E3816822EB2
:100CFA00C030B3003308B804992E013083120313AD
:100D0A00AA07FF302A0784000A128A1500200A124D
:100D1A008A11C300003A0319E32F6C3A03197B2E98
:100D2A00193A03197D2EBB2D381EAB2E39088400C3
:100D3A0083130008BA00840A0008BB00840A00086A
:100D4A00BC00840A0008BD000430BA2E39088400A9
:100D5A0083130008B300840A0008B4003308BA00F9
:100D6A003408BB00BC01BD010230B3003308B90727
:100D7A0041084204031DCD2E3D083C043B043A04BD
:100D8A00031DCD2E0130C1070318C20A0030C20765
:100D9A00C301C30A0A30430603190F2F4308B300DD
:100DAA0001300310B30DFF3E031DD62E0310330D81
:100DBA00013E84000A128A1500200A128A11B40020
:100DCA000A128A1500200A128A11B5000A128A1517
:100DDA0000200A128A11B6000A128A1500200A1285
:100DEA008A11B70037083D02031D052F36083C0259
:100DFA00031D052F35083B02031D052F34083A024F
:100E0A00031C0F2F0130B3003308C3070A3043060F
:100E1A00031DD32E4308B300B401B31BB403340833
:100E2A00803AB5004208803A3502031D1E2F410858
:100E3A0033020318272F831203134108B300330820
:100E4A00C300412F831203134308B300B401B31B39
:100E5A00B4034208803AB5003408803A3502031DCB
:100E6A00382F330841020318412F83120313430812
:100E7A00C100C201C11BC203831203134308B3009A
:100E8A00B401B31BB4033408803AB5004008803A71
:100E9A003502031D522F3F0833020318622F8312B3
:100EAA0003134308B300B401B31BB4033308BF02EE
:100EBA003408031CC003C002662F83120313BF0148
:100ECA00C0013F0840040319D62F2030B3003E0862
:100EDA0084003308831380000130B3003308BE074F
:100EEA00FF30BF070318C00AFF30C007662F003063
:100EFA00A3000030A2000030A1000A30A00041087F
:100F0A00B30001300310B30DFF3E031D872F0310FA
:100F1A00330D013E84000A128A1500200A128A1132
:100F2A00F0000A128A1500200A128A11F1000A1228
:100F3A008A1500200A128A11F2000A128A15002064
:100F4A000A128A11F3003D08F7003C08F6003B0834
:100F5A00F5003A08F4000A128A1536270A128A118D
:100F6A00730883120313A7007208A6007108A5006C
:100F7A007008A4000A128A158B260A128A11831293
:100F8A0003132008303EB4003408C3004308B300FA
:100F9A003E0884003308831380000130B30033080D
:100FAA00BE07FF30C1070318C20AFF30C207410A51
:100FBA00031D7C2F420A0319BB2D7C2F3E08840097
:100FCA008313800108008313B430FD000C30FE0047
:100FDA00EF30FF00A03084000A128A15BA240A12E0
:100FEA008A11B4308400C5300A128A158924830113
:100FFA000A128A15452D08308A000408840A8207D5
:10100A00003401340034003400340A34003400342B
:10101A0000346434003400340034E83403340034D7
:10102A0000341034273400340034A03486340134B8
:10103A000034403442340F340034803496349834C7
:10104A0000340034E134F53405340034CA349A34B7
:10105A003B3425346C3475342E34253436342E34EE
:08106A0036346C347534003497
:1018E400831203139F140C1F752C0C130800720829
:1018F40071047004031908008030F20608000B1DFF
:10190400812C63308312031381000B1108006400DF
:101914008001840A04060319003404068A2C831601
:1019240003130F13811181120B11633083120313FC
:1019340081000800831203139817181683160313E3
:1019440018159816831203130C130800F100F00104
:101954003A3071020318B42C30307102031CB42CD9
:10196400F001F00A700C08007E088A007F088200EB
:10197400B6240A128A158000840A04087D06031915
:101984000034FF0A0319FE0ABA2CFF30831603132E
:101994008600831203131F149F169F1383160313C9
:1019A4009F138316031788018901831603139E016D
:1019B40008007808F0007908F100F2018E30FB008D
:1019C4007B08F300F4010A128A1105207008F8005C
:1019D4007108F9007208FA000800543465346D3453
:1019E40070346534723461347434753472346134EF
:1019F40000340F34093409340F3400340034003413
:101A040000348312031329082804270403190C2D16
:101A14008030A9062A08F8002B08F9002C08FA00DF
:101A24002708FB002808FC002908FD000A128A1177
:101A3400AD24780883120313A7007908A8007A0854
:101A4400A9000800F401F501701C2E2D7208F4079A
:101A54000318F50A7308F50701300310F20DF30DAE
:101A6400FF3E031D2F2D01300310F10CF00CFF3E3F
:101A7400031D362D70087104031D262D7508F10011
:101A84007408F00008000A128A1591240A128A15B3
:101A94000A128A15C7240A128A150A128A159C2466
:101AA4000A128A150A128A1594270A128A150A122A
:101AB4008A1581240A128A150A128A1572240A12B6
:101AC4008A150A128A11FF200A128A15592D8E309E
:101AD400FC007C08FD00FF307B0503197F2D0130DD
:101AE4000310FB0CFA0CF90CF80CFF3E031D722DCD
:101AF4000130FC007C08FD076D2D7808F0007908A2
:101B0400F1007A08F2007D08FC007C08F300F4017F
:101B14000A128A1105207008F8007108F900720889
:101B2400FA000800831203130910F401F501891463
:101B3400F401F5010915F401F50108088039F000F4
:101B4400F1017008F2007108F3000911F401F501C4
:101B540072087304031D9C2D89100F308316031320
:101B6400880020308312031388000915F401F5015D
:101B74000911F401F501FF308316031388000800EE
:101B840020308400AC30F8000408F9000830FA0072
:101B94007808840083130008FB00F80A790884009D
:101BA4007B088000F90AFA0BCA2D4030F00000309F
:101BB400F1000A128A15FE250A128A1583120313EC
:101BC400A80108302802031808002808203E8400D1
:101BD40083130008F800F9017808F0007908F1008F
:101BE4000A128A1543260A128A150130F800780869
:101BF40083120313A807E32D831203130910F601BC
:101C0400F7018914F601F7010915F601F70108082F
:101C14008039F200F3017208F4007308F500091129
:101C2400F601F7010915F601F7010911F601F701AB
:101C340074087504031D062E89100F3083160313D0
:101C4400880070088312031388000915F601F70150
:101C54000911F601F7017008F20003300310F20DC8
:101C6400FF3E031D302E0310720D88000915F60186
:101C7400F7010911F601F701FF30831603138800F9
:101C84000800831203130910F601F7018914F60101
:101C9400F7010915F601F70108088039F200F3018C
:101CA4007208F4007308F5000911F601F70109152B
:101CB400F601F7010911F601F70174087504031D13
:101CC4004B2E0914F601F70189100F308316031304
:101CD400880070088312031388000915F601F701C0
:101CE4000911F601F7017008F20003300310F20D38
:101CF400FF3E031D782E0310720D88000915F601AE
:101D0400F7010911F601F701FF3083160313880068
:101D14000800831203132308220421042004031956
:101D2400D02EA901A90AA31BA52E0130A8000310D7
:101D3400A00DA10DA20DA30DA80B992E0130A80092
:101D44002808A907952E23082702031DB32E22086D
:101D54002602031DB32E21082502031DB32E2008DD
:101D64002402031CC32E2008A4022108031C210FF3
:101D7400A5022208031C220FA6022308031C230F1A
:101D8400A70201300310A30CA20CA10CA00CFF3E6F
:101D9400031DC42E0130A902031DA52E2708A3008C
:101DA4002608A2002508A1002408A0000800F21FAC
:101DB400002F0030F6000030F7008030F800700982
:101DC400F9007109FA007209FB00F90A0319FA0A09
:101DD4000319FB0A7908F6077A0803187A0FF32E19
:101DE400F42EF7077B0803187B0FF92EFA2EF80759
:101DF4007608F0007708F1007808F200F51F272F25
:101E04000030F6000030F7008030F8007309F90064
:101E14007409FA007509FB00F90A0319FA0A03198F
:101E2400FB0A7908F6077A0803187A0F1A2F1B2F72
:101E3400F7077B0803187B0F202F212FF80776085C
:101E4400F3007708F4007808F5008030F20680305B
:101E5400F50675087202031D080074087102031D5B
:101E640008007308700208000030FC000030FB001A
:101E74000030FA000030F900730872047104700431
:101E840003198B2FFD01FD0AF31B562F0130F800B7
:101E94000310F00DF10DF20DF30DF80B4A2F013084
:101EA400F8007808FD07462F0130F8000310F90DFB
:101EB400FA0DFB0DFC0DF80B582F73087702031D68
:101EC4006D2F72087602031D6D2F71087502031DB4
:101ED4006D2F70087402031C7E2F7008F4027108C1
:101EE400031C710FF5027208031C720FF6027308CB
:101EF400031C730FF702791401300310F30CF20C76
:101F0400F10CF00CFF3E031D7F2F0130FD02031D79
:101F1400562F7C08F3007B08F2007A08F100790858
:101F2400F00008002D308400A03083120313A900B0
:101F34000408AA000C30AB002908840083130008AD
:101F4400AC00A90A2A0884002C088000AA0AAB0B5A
:101F54009E2FF83083160313890083160317880114
:101F64000A128A1594250A128A150C30F0000030E2
:101F7400F1000A128A15FE250A128A152830F0008B
:101F84000030F1000A128A15FE250A128A15013062
:101F9400F0000030F1000A128A15FE250A128A1593
:101FA4008230F0000030F1000A128A15FE250A1270
:101FB4008A1583120313B90139082D3E8400831353
:101FC40000080319FC2F39082D3E840083130008F0
:101FD400A900AA012908F0002A08F1000A128A15AA
:101FE40043260A128A15013083120313A900290813
:0C1FF400B907DE2F0A128A15C22508006A
:02400E00F4F3C9
:00000001FF
