:100000000A128A11F92F00308A000408840A820734
:1000100000343F3406345B344F3466346D347D3401
:0C0020004B347F346F340E340D340B343D
:100F3000831603130F138110811181128801F03081
:100F40008600831603178901F5017608F2007708F9
:100F5000F3007808F400F1017508723E840000087F
:100F6000013E84000A128A1103200A128A11831298
:100F70000313880075080B3E84000A128A110320AF
:100F80000A128A1186000B1DC32F0C308312031323
:100F900081000B11023075020318D32F0130F000CD
:100FA0007008F507D42FF5010130F0007008F10743
:100FB00003307106031DAC2FF1010130F000700801
:100FC000F4070A307406031DAC2FF4010130F00061
:100FD0007008F3070A307306031DAC2FF3010130CC
:100FE000F0007008F2070A307206031DAC2FF20100
:100FF000AC2FF601F701F80183010A128A11982F2C
:00000001FF
